:100000000C9434000C94C5000C9446000C944600EB
:100010000C9446000C9446000C9446000C94460048
:100020000C9446000C9446000C9446000C94460038
:100030000C9446000C9446000C9446000C94460028
:100040000C9446000C9446000C9446000C94460018
:100050000C9446000C9446000C9446000C94460008
:100060000C9446000C94460011241FBECFEFD8E03C
:10007000DEBFCDBF21E0A0E0B1E001C01D92A23003
:10008000B207E1F70E94D4000C94F5010C94000033
:100090002A9A29982B9A2C9884EB87BD88BD0895BD
:1000A0002A9A29982B982C9A8AEA87BD88BD0895A8
:1000B0002A98299A2B9A2C988AEA87BD88BD089598
:1000C0002A9829982B9A2C9817BC8AEA88BD0895FB
:1000D0002A9A29982B982C988AEA87BD18BC0895EB
:1000E0002A9829982B982C9817BC18BC08952A9800
:1000F000299A2B982C9A86E987BD88BD0895509A35
:100100005198089558982AE02A95F1F700C0589A16
:1001100085E38A95F1F700005898499922C080E05C
:1001200090E00196499907C080362AEE9207C9F7F8
:1001300080E090E0089580369A4E20F520E030E08F
:10014000A90112C085E08A95F1F700002F5F3F4FAB
:100150004F4F5F4F21348CE938074105510521F499
:1001600005C020E030E0A9014999ECCFA7E5B1E056
:100170000E94DB0120E23EE440E050E00E94B90131
:10018000C901089580E090E008951F920F920FB684
:100190000F9211248F9381E0809300018F910F9033
:1001A0000FBE0F901F90189584B18E6184B987B1EE
:1001B000887F87B988B1876088B90E947F008AB13B
:1001C00080668AB983EA84BD82E085BD17BC18BC0D
:1001D0008AB188698AB952985A9AE9E6F0E0808132
:1001E00082608083E89A789401E06894FF24F1F8B3
:1001F00080910001882339F12FEF86E791E02150AB
:1002000080409040E1F700C000004A991AC08091F8
:100210000101811103C00093010109C08091010116
:10022000813019F4F092010102C0009301014A9952
:1002300008C08FE19EE40197F1F700C000004A9BDF
:10024000F8CF1092000180910101813021F45C9A75
:100250005F985B980AC080910101823019F45F9A1F
:100260005C9803C05C985F985B9880910101811154
:1002700003C00E947000BCCF80910101823089F5DB
:100280000E94820001970A9758F50E9470005B9ABD
:100290009FEF21EE84E0915020408040E1F700C0C4
:1002A00000005B989FEF21EE84E091502040804059
:1002B000E1F700C000005B9A9FEF21EE84E09150CF
:1002C00020408040E1F700C000005B989FEF21EEE6
:1002D00084E0915020408040E1F700C0000088CFCA
:1002E0005B98C6B11C2F1470DC2FD3708C2F8770D5
:1002F000B1F40E9477009FEF20E782E09150204008
:100300008040E1F700C000000E9458009FEF29EFF5
:1003100080E0915020408040E1F700C00000D330E1
:1003200019F51123F1F00E94480014C00E945000FA
:1003300011C0C1FF03C00E9448000CC0C0FF03C031
:100340000E94600007C0112319F00E94680002C0DB
:100350000E9470008FE39CE90197F1F700C0000054
:1003600047CF0E945800F6CF8C2F8670863009F751
:10037000DDCFA1E21A2EAA1BBB1BFD010DC0AA1FD7
:10038000BB1FEE1FFF1FA217B307E407F50720F0FE
:10039000A21BB30BE40BF50B661F771F881F991F79
:1003A0001A9469F760957095809590959B01AC01C2
:1003B000BD01CF0108950E94E601A59F900DB49F55
:1003C000900DA49F800D911D11240895A29FB0014E
:1003D000B39FC001A39F700D811D1124911DB29F79
:0E03E000700D811D1124911D0895F894FFCF1A
:00000001FF
