:100000000C9434000C943E000C943E000C943E0082
:100010000C943E000C943E000C943E000C943E0068
:100020000C943E000C943E000C943E000C943E0058
:100030000C943E000C943E000C943E000C943E0048
:100040000C943E000C943E000C943E000C943E0038
:100050000C943E000C943E000C943E000C943E0028
:100060000C943E000C943E0011241FBECFEFD8E04C
:10007000DEBFCDBF0E94D7000C94DE000C940000C0
:100080008AB188618AB984B18F6084B987B1886385
:1000900087B987B1887F87B988B1876088B90895A3
:1000A000E0EBF0E0808181628083E1EBF0E0808131
:1000B00082608083E0E8F0E0808181688083E1E80D
:1000C000F0E080818260808308955C9A28982A9A63
:1000D0002B988093B40090E09093890080938800DF
:1000E00008955C9A28982A9A2B98982F9695909321
:1000F000B40090E0909389008093880008955C9A02
:1001000028982A9A2B988093B400869590E0909333
:1001100089008093880008955C9828982A982B98E5
:100120001092B4001092890010928800089596B140
:1001300031E0592F517090FD30E096B181E0492FA8
:10014000427091FD80E026B191E0622F647022FD43
:1001500090E0511102C0449A01C04498411102C07C
:10016000459A01C04598611102C0439A01C0439865
:10017000830F890F813091F4411104C08FEF0E94E9
:1001800065000895511104C08EEB0E94710008951E
:1001900061110AC08EEB0E947F000895823021F425
:1001A0008FEA0E94650008950E948C0008950E94C5
:1001B00040000E9450000E949700FDCFF894FFCFAE
:00000001FF
